:020000040000FA
:100000002A28FF3EFF3EFF3EFF00030E8301A000B3
:100010000A08A1008A010408A2000E28AA080319F0
:10002000A903AA0B2028A908031D20281330A90022
:100030001230AA00D030AB070318AA0A0130AC0076
:100040000B112208840021088A00200E8300FF0E75
:100050007F0E0900FF30A400FF30A5000130E2212F
:100060001322003024220030262224162322A41634
:100070002222051E5228FF30A800C030C600F930E9
:10008000C700A430C800B030C9009930CA0092300F
:10009000CB008230CC00D830CD008030CE00903004
:1000A000CF006728A8013F30C6000630C7005B308C
:1000B000C8004F30C9006630CA006D30CB007D30BB
:1000C000CC002730CD007F30CE006F30CF00051E32
:1000D000AA2801301A22003018220230DB21023017
:1000E0001A22003018220230DB2104301A2200309C
:1000F00018220230DB2108301A2200301822023088
:10010000DB214F0818220230DB214E081822023072
:10011000DB214D0818220230DB214C081822023066
:10012000DB214B0818220230DB214A08182202305A
:10013000DB21490818220230DB214808182202304E
:10014000DB21470818220230DB2146081822023042
:10015000DB21EA28FE301A22FF3018220230DB2190
:10016000FD301A22FF3018220230DB21FB301A2228
:10017000FF3018220230DB21F7301A22FF3018221C
:100180000230DB214F0818220230DB214E081822F2
:100190000230DB214D0818220230DB214C081822E6
:1001A0000230DB214B0818220230DB214A081822DA
:1001B0000230DB21490818220230DB2148081822CE
:1001C0000230DB21470818220230DB2146081822C2
:1001D0000230DB211330A9001230AA00D030AB006E
:1001E000AC01AD01AF01B001B101B201B3013222E6
:1001F00080302E228B178B163522851A0F292D0859
:10020000013C031D0E29AD010630B0073008633CE8
:1002100003180E29B10A64303002B00011290130F0
:10022000AD002C08013C031D1C29AC013008B200B4
:100230003108B300B101B0013308B6000A30B7008D
:1002400047223808B4003408AE002E08463E840029
:100250000008AE002E084602031D30292808AE0013
:10026000051E352901301A223729FE301A222E08A0
:1002700018220130FB2128081822851A4F292D0841
:10028000013C031D4E29AD010630B0073008633C28
:1002900003184E29B10A64303002B00051290130F0
:1002A000AD00B308031D57292808AE00652933089F
:1002B000B7000A30B80038223908B5003508AE005A
:1002C0002E08463E84000008AE00051E6A29023052
:1002D0001A226C29FD301A222E0818220130FB2127
:1002E00028081822851A84292D08013C031D83291A
:1002F000AD010630B0073008633C03188329B10A0A
:1003000064303002B00086290130AD003208B600FA
:100310000A30B70047223808B5003508AE002E086D
:10032000463E84000008AE00B308031D9D292E0838
:100330004602031D9D292808AE00051EA22904308F
:100340001A22A429FB301A222E0818220130FB2180
:1003500028081822851ABC292D08013C031DBB2939
:10036000AD010630B0073008633C0318BB29B10A61
:1003700064303002B000BE290130AD003208B70051
:100380000A30B80038223908B6003608AE002E0808
:10039000463E84000008AE00051ED12908301A220E
:1003A000D329F7301A222E0818220130FB21280801
:1003B0001822FD28DA29A9002908AA006430AB0018
:1003C0001430E929A9002908AA006430AB000A30DA
:1003D000E929AC00FF30AD002B08AF002A08AE00C1
:1003E00017302D070318F129AE0BF029AF0BEE29BA
:1003F000AC0BEC290800B7003708062237080622A4
:1004000037080622370806223708062AB800F430D3
:10041000B900FC30BA0038083907031C00343A0729
:1004200003180F2A080007309F0032221F13352AB5
:10043000A7001C2AA6001F2A2708860008002608F5
:10044000850008002B2A2B2AA500282AA4002B2A85
:10045000250886000800240885000800B400340838
:1004600062000800831603130800831203130800B8
:10047000B8080319442A380837020318402A442AC6
:1004800038083702B7003B2A3708B9000800B9011D
:10049000B7080319552A370836020318502A552A77
:1004A00037083602B600B90A4B2A3908B8000800E6
:00000001FF
